Archive member included because of file (symbol)

C:/WinAVR/lib/gcc/avr/3.4.6/avr5\libgcc.a(_mulsi3.o)
                              Tachometer.o (__mulsi3)
C:/WinAVR/lib/gcc/avr/3.4.6/avr5\libgcc.a(_udivmodsi4.o)
                              Tachometer.o (__udivmodsi4)
C:/WinAVR/lib/gcc/avr/3.4.6/avr5\libgcc.a(_clear_bss.o)
                              Tachometer.o (__do_clear_bss)
c:/winavr/bin/../lib/gcc/avr/3.4.6/../../../../avr/lib/avr5\libc.a(atoi.o)
                              Tachometer.o (atoi)
c:/winavr/bin/../lib/gcc/avr/3.4.6/../../../../avr/lib/avr5\libc.a(tolower.o)
                              Tachometer.o (tolower)
c:/winavr/bin/../lib/gcc/avr/3.4.6/../../../../avr/lib/avr5\libc.a(mul10.o)
                              c:/winavr/bin/../lib/gcc/avr/3.4.6/../../../../avr/lib/avr5\libc.a(atoi.o) (__mulhi_const_10)
c:/winavr/bin/../lib/gcc/avr/3.4.6/../../../../avr/lib/avr5\libc.a(fdevopen.o)
                              Tachometer.o (fdevopen)
c:/winavr/bin/../lib/gcc/avr/3.4.6/../../../../avr/lib/avr5\libc.a(fgetc.o)
                              Tachometer.o (fgetc)
c:/winavr/bin/../lib/gcc/avr/3.4.6/../../../../avr/lib/avr5\libc.a(fgets.o)
                              Tachometer.o (fgets)
c:/winavr/bin/../lib/gcc/avr/3.4.6/../../../../avr/lib/avr5\libc.a(iob.o)
                              Tachometer.o (__iob)
c:/winavr/bin/../lib/gcc/avr/3.4.6/../../../../avr/lib/avr5\libc.a(printf.o)
                              Tachometer.o (printf)
c:/winavr/bin/../lib/gcc/avr/3.4.6/../../../../avr/lib/avr5\libc.a(puts.o)
                              Tachometer.o (puts)
c:/winavr/bin/../lib/gcc/avr/3.4.6/../../../../avr/lib/avr5\libc.a(vfprintf_std.o)
                              c:/winavr/bin/../lib/gcc/avr/3.4.6/../../../../avr/lib/avr5\libc.a(printf.o) (vfprintf)
c:/winavr/bin/../lib/gcc/avr/3.4.6/../../../../avr/lib/avr5\libc.a(ee_rblk.1C1D1E.o)
                              Tachometer.o (__eeprom_read_block_1C1D1E)
c:/winavr/bin/../lib/gcc/avr/3.4.6/../../../../avr/lib/avr5\libc.a(ee_wb.1C1D1E.o)
                              Tachometer.o (__eeprom_write_byte_1C1D1E)
c:/winavr/bin/../lib/gcc/avr/3.4.6/../../../../avr/lib/avr5\libc.a(ee_ww.1C1D1E.o)
                              Tachometer.o (__eeprom_write_word_1C1D1E)
c:/winavr/bin/../lib/gcc/avr/3.4.6/../../../../avr/lib/avr5\libc.a(calloc.o)
                              c:/winavr/bin/../lib/gcc/avr/3.4.6/../../../../avr/lib/avr5\libc.a(fdevopen.o) (calloc)
c:/winavr/bin/../lib/gcc/avr/3.4.6/../../../../avr/lib/avr5\libc.a(malloc.o)
                              c:/winavr/bin/../lib/gcc/avr/3.4.6/../../../../avr/lib/avr5\libc.a(calloc.o) (malloc)
c:/winavr/bin/../lib/gcc/avr/3.4.6/../../../../avr/lib/avr5\libc.a(isalpha.o)
                              c:/winavr/bin/../lib/gcc/avr/3.4.6/../../../../avr/lib/avr5\libc.a(tolower.o) (isalpha)
c:/winavr/bin/../lib/gcc/avr/3.4.6/../../../../avr/lib/avr5\libc.a(strlen_P.o)
                              c:/winavr/bin/../lib/gcc/avr/3.4.6/../../../../avr/lib/avr5\libc.a(vfprintf_std.o) (strlen_P)
c:/winavr/bin/../lib/gcc/avr/3.4.6/../../../../avr/lib/avr5\libc.a(strnlen_P.o)
                              c:/winavr/bin/../lib/gcc/avr/3.4.6/../../../../avr/lib/avr5\libc.a(vfprintf_std.o) (strnlen_P)
c:/winavr/bin/../lib/gcc/avr/3.4.6/../../../../avr/lib/avr5\libc.a(memset.o)
                              c:/winavr/bin/../lib/gcc/avr/3.4.6/../../../../avr/lib/avr5\libc.a(calloc.o) (memset)
c:/winavr/bin/../lib/gcc/avr/3.4.6/../../../../avr/lib/avr5\libc.a(strnlen.o)
                              c:/winavr/bin/../lib/gcc/avr/3.4.6/../../../../avr/lib/avr5\libc.a(vfprintf_std.o) (strnlen)
c:/winavr/bin/../lib/gcc/avr/3.4.6/../../../../avr/lib/avr5\libc.a(fputc.o)
                              c:/winavr/bin/../lib/gcc/avr/3.4.6/../../../../avr/lib/avr5\libc.a(vfprintf_std.o) (fputc)
c:/winavr/bin/../lib/gcc/avr/3.4.6/../../../../avr/lib/avr5\libc.a(ee_rb.1C1D1E.o)
                              c:/winavr/bin/../lib/gcc/avr/3.4.6/../../../../avr/lib/avr5\libc.a(ee_rblk.1C1D1E.o) (__eeprom_read_byte_1C1D1E)
c:/winavr/bin/../lib/gcc/avr/3.4.6/../../../../avr/lib/avr5\libc.a(cty_isfalse.o)
                              c:/winavr/bin/../lib/gcc/avr/3.4.6/../../../../avr/lib/avr5\libc.a(isalpha.o) (__ctype_isfalse)

Allocating common symbols
Common symbol       size              file

gUart1RxBuf         0x82              UART.o
gUart0TxBuf         0x82              UART.o
__brkval            0x2               c:/winavr/bin/../lib/gcc/avr/3.4.6/../../../../avr/lib/avr5\libc.a(malloc.o)
gUart1TxBuf         0x82              UART.o
eeRam               0x5               Tachometer.o
TACH_gBuffer        0x42              Tach.o
gLine               0x14              Tachometer.o
gUart0RxBuf         0x82              UART.o
__flp               0x2               c:/winavr/bin/../lib/gcc/avr/3.4.6/../../../../avr/lib/avr5\libc.a(malloc.o)
__iob               0x6               c:/winavr/bin/../lib/gcc/avr/3.4.6/../../../../avr/lib/avr5\libc.a(iob.o)

Memory Configuration

Name             Origin             Length             Attributes
text             0x00000000         0x00020000         xr
data             0x00800060         0x0000ffa0         rw !x
eeprom           0x00810000         0x00010000         rw !x
*default*        0x00000000         0xffffffff

Linker script and memory map

Address of section .data set to 0x800100
LOAD c:/winavr/bin/../lib/gcc/avr/3.4.6/../../../../avr/lib/avr5/crtm128.o
LOAD Tachometer.o
LOAD a2d_8.o
LOAD Timer.o
LOAD UART.o
LOAD Hardware.o
LOAD Tach.o
LOAD C:/WinAVR/lib/gcc/avr/3.4.6/avr5\libgcc.a
LOAD c:/winavr/bin/../lib/gcc/avr/3.4.6/../../../../avr/lib/avr5\libc.a
LOAD C:/WinAVR/lib/gcc/avr/3.4.6/avr5\libgcc.a

.hash
 *(.hash)

.dynsym
 *(.dynsym)

.dynstr
 *(.dynstr)

.gnu.version
 *(.gnu.version)

.gnu.version_d
 *(.gnu.version_d)

.gnu.version_r
 *(.gnu.version_r)

.rel.init
 *(.rel.init)

.rela.init
 *(.rela.init)

.rel.text
 *(.rel.text)
 *(.rel.text.*)
 *(.rel.gnu.linkonce.t*)

.rela.text
 *(.rela.text)
 *(.rela.text.*)
 *(.rela.gnu.linkonce.t*)

.rel.fini
 *(.rel.fini)

.rela.fini
 *(.rela.fini)

.rel.rodata
 *(.rel.rodata)
 *(.rel.rodata.*)
 *(.rel.gnu.linkonce.r*)

.rela.rodata
 *(.rela.rodata)
 *(.rela.rodata.*)
 *(.rela.gnu.linkonce.r*)

.rel.data
 *(.rel.data)
 *(.rel.data.*)
 *(.rel.gnu.linkonce.d*)

.rela.data
 *(.rela.data)
 *(.rela.data.*)
 *(.rela.gnu.linkonce.d*)

.rel.ctors
 *(.rel.ctors)

.rela.ctors
 *(.rela.ctors)

.rel.dtors
 *(.rel.dtors)

.rela.dtors
 *(.rela.dtors)

.rel.got
 *(.rel.got)

.rela.got
 *(.rela.got)

.rel.bss
 *(.rel.bss)

.rela.bss
 *(.rela.bss)

.rel.plt
 *(.rel.plt)

.rela.plt
 *(.rela.plt)

.text           0x00000000     0x142a
 *(.vectors)
 .vectors       0x00000000       0x8c c:/winavr/bin/../lib/gcc/avr/3.4.6/../../../../avr/lib/avr5/crtm128.o
                0x00000000                __vectors
                0x00000000                __vector_default
                0x0000008c                __ctors_start = .
 *(.ctors)
                0x0000008c                __ctors_end = .
                0x0000008c                __dtors_start = .
 *(.dtors)
                0x0000008c                __dtors_end = .
 *(.progmem.gcc*)
 *(.progmem*)
                0x0000008c                . = ALIGN (0x2)
 *(.init0)
 *(.init1)
 *(.init2)
 .init2         0x0000008c        0xc c:/winavr/bin/../lib/gcc/avr/3.4.6/../../../../avr/lib/avr5/crtm128.o
 *(.init3)
 *(.init4)
 .init4         0x00000098       0x1a c:/winavr/bin/../lib/gcc/avr/3.4.6/../../../../avr/lib/avr5/crtm128.o
                0x00000098                __do_copy_data
 .init4         0x000000b2       0x10 C:/WinAVR/lib/gcc/avr/3.4.6/avr5\libgcc.a(_clear_bss.o)
                0x000000b2                __do_clear_bss
 *(.init5)
 *(.init6)
 *(.init7)
 *(.init8)
 *(.init9)
 .init9         0x000000c2        0x4 c:/winavr/bin/../lib/gcc/avr/3.4.6/../../../../avr/lib/avr5/crtm128.o
 *(.text)
 .text          0x000000c6        0x4 c:/winavr/bin/../lib/gcc/avr/3.4.6/../../../../avr/lib/avr5/crtm128.o
                0x000000c6                __vector_22
                0x000000c6                __vector_28
                0x000000c6                __vector_1
                0x000000c6                __vector_32
                0x000000c6                __vector_34
                0x000000c6                __vector_24
                0x000000c6                __vector_12
                0x000000c6                __bad_interrupt
                0x000000c6                __vector_6
                0x000000c6                __vector_3
                0x000000c6                __vector_23
                0x000000c6                __vector_11
                0x000000c6                __vector_13
                0x000000c6                __vector_17
                0x000000c6                __vector_7
                0x000000c6                __vector_27
                0x000000c6                __vector_5
                0x000000c6                __vector_33
                0x000000c6                __vector_4
                0x000000c6                __vector_9
                0x000000c6                __vector_2
                0x000000c6                __vector_21
                0x000000c6                __vector_15
                0x000000c6                __vector_8
                0x000000c6                __vector_26
                0x000000c6                __vector_14
                0x000000c6                __vector_10
                0x000000c6                __vector_20
 .text          0x000000ca      0x2c0 Tachometer.o
                0x000000ca                main
 .text          0x0000038a       0x16 a2d_8.o
                0x0000038a                a2d_8
 .text          0x000003a0       0x6a Timer.o
                0x000003f2                WaitForTimer0Rollover
                0x000003e4                InitTimer
                0x000003a0                __vector_16
 .text          0x0000040a      0x2ee UART.o
                0x00000656                UART1_PutCharStdio
                0x000005d4                UART0_GetCharStdio
                0x000004fa                __vector_31
                0x00000604                UART1_GetCharStdio
                0x00000590                UART0_GetChar
                0x000006b0                UART0_Write
                0x0000045a                __vector_30
                0x00000552                UART0_PutChar
                0x00000686                UART1_PutStr
                0x000004ac                __vector_19
                0x00000610                UART1_PutChar
                0x0000065c                UART0_PutStr
                0x0000060a                UART0_PutCharStdio
                0x000006d4                UART1_Write
                0x0000040a                __vector_18
                0x000005da                UART1_GetChar
 .text          0x000006f8       0xa0 Hardware.o
                0x000006f8                InitHardware
 .text          0x00000798       0xea Tach.o
                0x000007c6                __vector_25
                0x00000798                __vector_29
 .text          0x00000882       0x5a c:/winavr/bin/../lib/gcc/avr/3.4.6/../../../../avr/lib/avr5\libc.a(atoi.o)
                0x00000882                atoi
 .text          0x000008dc       0x10 c:/winavr/bin/../lib/gcc/avr/3.4.6/../../../../avr/lib/avr5\libc.a(mul10.o)
                0x000008dc                __mulhi_const_10
 .text          0x000008ec       0x8e c:/winavr/bin/../lib/gcc/avr/3.4.6/../../../../avr/lib/avr5\libc.a(fdevopen.o)
                0x000008ec                fdevopen
 .text          0x0000097a       0x86 c:/winavr/bin/../lib/gcc/avr/3.4.6/../../../../avr/lib/avr5\libc.a(fgetc.o)
                0x0000097a                fgetc
 .text          0x00000a00       0x66 c:/winavr/bin/../lib/gcc/avr/3.4.6/../../../../avr/lib/avr5\libc.a(fgets.o)
                0x00000a00                fgets
 .text          0x00000a66       0x2a c:/winavr/bin/../lib/gcc/avr/3.4.6/../../../../avr/lib/avr5\libc.a(printf.o)
                0x00000a66                printf
 .text          0x00000a90       0x6c c:/winavr/bin/../lib/gcc/avr/3.4.6/../../../../avr/lib/avr5\libc.a(puts.o)
                0x00000a90                puts
 .text          0x00000afc      0x57a c:/winavr/bin/../lib/gcc/avr/3.4.6/../../../../avr/lib/avr5\libc.a(vfprintf_std.o)
                0x00000afc                vfprintf
 .text          0x00001076       0x38 c:/winavr/bin/../lib/gcc/avr/3.4.6/../../../../avr/lib/avr5\libc.a(calloc.o)
                0x00001076                calloc
 .text          0x000010ae      0x1ec c:/winavr/bin/../lib/gcc/avr/3.4.6/../../../../avr/lib/avr5\libc.a(malloc.o)
                0x000010ae                malloc
                0x000011e2                free
 .text          0x0000129a       0x12 c:/winavr/bin/../lib/gcc/avr/3.4.6/../../../../avr/lib/avr5\libc.a(strlen_P.o)
                0x0000129a                strlen_P
 .text          0x000012ac       0x16 c:/winavr/bin/../lib/gcc/avr/3.4.6/../../../../avr/lib/avr5\libc.a(strnlen_P.o)
                0x000012ac                strnlen_P
 .text          0x000012c2       0x14 c:/winavr/bin/../lib/gcc/avr/3.4.6/../../../../avr/lib/avr5\libc.a(memset.o)
                0x000012c2                memset
 .text          0x000012d6       0x16 c:/winavr/bin/../lib/gcc/avr/3.4.6/../../../../avr/lib/avr5\libc.a(strnlen.o)
                0x000012d6                strnlen
 .text          0x000012ec       0x5a c:/winavr/bin/../lib/gcc/avr/3.4.6/../../../../avr/lib/avr5\libc.a(fputc.o)
                0x000012ec                fputc
                0x00001346                . = ALIGN (0x2)
 *(.text.*)
 .text.libgcc   0x00001346       0x3e C:/WinAVR/lib/gcc/avr/3.4.6/avr5\libgcc.a(_mulsi3.o)
                0x00001346                __mulsi3
 .text.libgcc   0x00001384       0x44 C:/WinAVR/lib/gcc/avr/3.4.6/avr5\libgcc.a(_udivmodsi4.o)
                0x00001384                __udivmodsi4
 .text.ctype    0x000013c8        0xc c:/winavr/bin/../lib/gcc/avr/3.4.6/../../../../avr/lib/avr5\libc.a(tolower.o)
                0x000013c8                tolower
 .text.eeprom   0x000013d4        0xa c:/winavr/bin/../lib/gcc/avr/3.4.6/../../../../avr/lib/avr5\libc.a(ee_rblk.1C1D1E.o)
                0x000013d4                __eeprom_read_block_1C1D1E
 .text.eeprom   0x000013de       0x18 c:/winavr/bin/../lib/gcc/avr/3.4.6/../../../../avr/lib/avr5\libc.a(ee_wb.1C1D1E.o)
                0x000013de                __eeprom_write_byte_1C1D1E
 .text.eeprom   0x000013f6        0xa c:/winavr/bin/../lib/gcc/avr/3.4.6/../../../../avr/lib/avr5\libc.a(ee_ww.1C1D1E.o)
                0x000013f6                __eeprom_write_word_1C1D1E
 .text.ctype    0x00001400       0x14 c:/winavr/bin/../lib/gcc/avr/3.4.6/../../../../avr/lib/avr5\libc.a(isalpha.o)
                0x00001406                islower
                0x00001400                isupper
                0x00001404                isalpha
 .text.eeprom   0x00001414       0x10 c:/winavr/bin/../lib/gcc/avr/3.4.6/../../../../avr/lib/avr5\libc.a(ee_rb.1C1D1E.o)
                0x00001414                __eeprom_read_byte_1C1D1E
 .text.ctype    0x00001424        0x6 c:/winavr/bin/../lib/gcc/avr/3.4.6/../../../../avr/lib/avr5\libc.a(cty_isfalse.o)
                0x00001428                __ctype_istrue
                0x00001424                __ctype_isfalse
                0x0000142a                . = ALIGN (0x2)
 *(.fini9)
 *(.fini8)
 *(.fini7)
 *(.fini6)
 *(.fini5)
 *(.fini4)
 *(.fini3)
 *(.fini2)
 *(.fini1)
 *(.fini0)
                0x0000142a                _etext = .

.data           0x00800100       0x42 load address 0x0000142a
                0x00800100                PROVIDE (__data_start, .)
 *(.data)
 .data          0x00800100       0x3b Tachometer.o
 .data          0x0080013b        0x6 c:/winavr/bin/../lib/gcc/avr/3.4.6/../../../../avr/lib/avr5\libc.a(malloc.o)
                0x0080013d                __malloc_heap_start
                0x0080013b                __malloc_heap_end
                0x0080013f                __malloc_margin
 *(.gnu.linkonce.d*)
                0x00800142                . = ALIGN (0x2)
 *fill*         0x00800141        0x1 00
                0x00800142                _edata = .
                0x00800142                PROVIDE (__data_end, .)

.bss            0x00800142      0x272
                0x00800142                PROVIDE (__bss_start, .)
 *(.bss)
 .bss           0x00800142        0x3 Timer.o
                0x00800142                gTickCount
 .bss           0x00800145        0x2 Tach.o
 *(COMMON)
 COMMON         0x00800147       0x19 Tachometer.o
                0x00800147                eeRam
                0x0080014c                gLine
 COMMON         0x00800160      0x208 UART.o
                0x00800160                gUart1RxBuf
                0x008001e2                gUart0TxBuf
                0x00800264                gUart1TxBuf
                0x008002e6                gUart0RxBuf
 COMMON         0x00800368       0x42 Tach.o
                0x00800368                TACH_gBuffer
 COMMON         0x008003aa        0x6 c:/winavr/bin/../lib/gcc/avr/3.4.6/../../../../avr/lib/avr5\libc.a(iob.o)
                0x008003aa                __iob
 COMMON         0x008003b0        0x4 c:/winavr/bin/../lib/gcc/avr/3.4.6/../../../../avr/lib/avr5\libc.a(malloc.o)
                0x008003b0                __brkval
                0x008003b2                __flp
                0x008003b4                PROVIDE (__bss_end, .)
                0x0000142a                __data_load_start = LOADADDR (.data)
                0x0000146c                __data_load_end = (__data_load_start + SIZEOF (.data))

.noinit         0x008003b4        0x0
                0x008003b4                PROVIDE (__noinit_start, .)
 *(.noinit*)
                0x008003b4                PROVIDE (__noinit_end, .)
                0x008003b4                _end = .
                0x008003b4                PROVIDE (__heap_start, .)

.eeprom         0x00810000        0x5
 *(.eeprom*)
 .eeprom        0x00810000        0x5 Tachometer.o
                0x00810000                eeprom
                0x00810005                __eeprom_end = .

.stab           0x00000000      0x408
 *(.stab)
 .stab          0x00000000      0x408 c:/winavr/bin/../lib/gcc/avr/3.4.6/../../../../avr/lib/avr5/crtm128.o

.stabstr        0x00000000       0x84
 *(.stabstr)
 .stabstr       0x00000000       0x84 c:/winavr/bin/../lib/gcc/avr/3.4.6/../../../../avr/lib/avr5/crtm128.o

.stab.excl
 *(.stab.excl)

.stab.exclstr
 *(.stab.exclstr)

.stab.index
 *(.stab.index)

.stab.indexstr
 *(.stab.indexstr)

.comment
 *(.comment)

.debug
 *(.debug)

.line
 *(.line)

.debug_srcinfo
 *(.debug_srcinfo)

.debug_sfnames
 *(.debug_sfnames)

.debug_aranges
 *(.debug_aranges)

.debug_pubnames
 *(.debug_pubnames)

.debug_info
 *(.debug_info)
 *(.gnu.linkonce.wi.*)

.debug_abbrev
 *(.debug_abbrev)

.debug_line
 *(.debug_line)

.debug_frame
 *(.debug_frame)

.debug_str
 *(.debug_str)

.debug_loc
 *(.debug_loc)

.debug_macinfo
 *(.debug_macinfo)
OUTPUT(Tachometer.elf elf32-avr)
